:100000000C94D5000C94FD000C94FD000C94FD00A4
:100010000C94FD000C94FD000C94FD000C94FD006C
:100020000C94FD000C94FD000C949F070C940E089A
:100030000C94FD000C94FD000C94FD000C94FD004C
:100040000C94FD000C948A0A0C94FD000C94FD00A5
:100050000C94FD000C94FD000C94FD000C94400ADF
:100060000C94FD000C94FD000C94FD000C94FD001C
:100070000C94FD000C94FD000C94FD000C94FD000C
:100080000C94FD000C94FD000C94FD000C94FD00FC
:100090000C94FD000C94FD000C94FD000C94FD00EC
:1000A0000C94FD000C94FD000C94FD000000000079
:1000B000240027002A002D00300000000000250049
:1000C00028002B002E003100000000002300260035
:1000D00029002C002F000404040404030405020278
:1000E00002020403020202020606060606060404D1
:1000F0000202020404040802011040804010204063
:10010000804080080204018040201002011080100D
:10011000204040200000000200090F0000030401FD
:10012000000C0000000000000000000000000000C3
:10013000000000080B000202020000090400000198
:10014000020200000524001001052401010104241D
:10015000020605240600010705810310004009047A
:100160000100020A00000007050202400000070526
:1001700083024000000403090412010002EF02019F
:100180004041233680000101020301417264756918
:100190006E6F204C4C430041726475696E6F204C49
:1001A000656F6E6172646F008B0B11241FBECFEF01
:1001B000DAE0DEBFCDBF11E0A0E0B1E0EAEFFFE1A1
:1001C00002C005900D92AE39B107D9F722E0AEE931
:1001D000B1E001C01D92AA33B207E1F710E0C5ED0E
:1001E000D0E004C02197FE010E94F50FC43DD10765
:1001F000C9F70E94C20B0C94FB0F0C9400008F9265
:100200009F92AF92BF92FF920F931F93CF93DF9372
:10021000F09037022BE02F1508F44CC020913902E2
:1002200008E512E0021B110927FD1395000F111FAD
:10023000000F111F20913802C8E8D0E0C21BD1097D
:1002400027FDD395CC0FDD1FCC0FDD1F4E010D2EEA
:10025000000CAA08BB089801012E000C440B550B9A
:10026000281939094A095B09DC010E946D0D24EB4C
:1002700030E040E050E00E94430D820E931EA41E29
:10028000B51E8C169D062CF0E801801691060CF424
:10029000E4012297CC0FDD1F2FB7F8948F2D90E04B
:1002A000FC01EE0FFF1FE80FF91FEE5EFD4FD2833A
:1002B000C1832FBFDF91CF911F910F91FF90BF900E
:1002C000AF909F908F900895FC018091C101882389
:1002D00011F13FB7F89482E08093E9002091F20099
:1002E000822F90E01816190614F481E090E088231C
:1002F00039F0289844E64093C0014091F1004083D2
:10030000222339F02091F200211103C02BE6209323
:10031000E8003FBF08958FEF9FEF08952FB7F8943F
:1003200083E08093E9009091E800892F807295FF27
:1003300004C09091F20080E4891B2FBF0895809142
:10034000B80181110DC082E08093B40184E08093F4
:10035000B5011092B7011092B60181E08093B80107
:1003600084EB91E008954091AE015091AF0120914E
:10037000AC013091AD0142175307B4F49091E800FD
:100380009570E1F39091E80092FD19C08093F1001F
:100390008091AE019091AF0101968F739927892BBF
:1003A00019F48EEF8093E8008091AE019091AF0137
:1003B00001969093AF018093AE0181E0089580E0B3
:1003C0000895EF92FF920F931F93CF93DF93F82E30
:1003D000192FE62E042F81E0860F880F0E94B301AB
:1003E00083E00E94B301CF2DD12FEC0EFD2EF11C26
:1003F000CE15DF05B9F007FF13C0FE0184910E94FE
:10040000B301182F80E00E94B3018123219681114E
:10041000EFCFDF91CF911F910F91FF90EF90089553
:100420008881EDCF81E0F5CFDF92EF92FF920F93BD
:100430001F93CF93DF93D82E8A01EB017B01E40E4B
:10044000F51ECE15DF0559F0D7FE12C0FE018491CE
:100450000E94B30121968111F4CF0FEF1FEFC80165
:10046000DF91CF911F910F91FF90EF90DF90089552
:100470008881EECF0F931F93CF93DF931F92CDB759
:10048000DEB782E0898342E450E063E371E080E814
:100490000E9414020E949F01DC0112960D911C9192
:1004A0000115110589F0D801ED91FC910280F381CD
:1004B000E02DBE016F5F7F4FC801099597FD04C015
:1004C000F80100851185ECCF89810F90DF91CF91E4
:1004D0001F910F910895615030F02091F100FC01BF
:1004E00020830196F8CF289884E68093C001089570
:1004F000CF93DF931F92CDB7DEB76983DC01ED9117
:10050000FC910280F381E02D41E050E0BE016F5F7D
:100510007F4F09950F90DF91CF91089583E08093ED
:10052000E9008091F200882319F08AE38093E800C3
:1005300008950E948E0190E00895CF93DF931F925B
:10054000CDB7DEB7FC018485958597FD08C02FEFF8
:100550003FEF358724870F90DF91CF910895CE012B
:1005600001960E946401019719F4898190E0F3CF0C
:100570008FEF9FEFF0CF0F931F93CF93DF931F92D7
:10058000CDB7DEB78C01FC018485958597FF0BC044
:10059000CE0101960E946401019771F4898190E077
:1005A000F80195878487F801848595850F90DF9100
:1005B000CF911F910F9108958FEF9FEFF1CFFC0125
:1005C0008485958597FD0BC09FB7F89482E0809352
:1005D000E9008091F2009FBF90E0019608959FB7D7
:1005E000F89482E08093E9008091F2009FBF90E050
:1005F000089581508F3008F047C0E82FF0E0ED5F9C
:10060000FC4F0C94F50F20032403120318031C0362
:1006100044034403440327032D03310335033B0301
:1006200044033F03809180008F778093800008957A
:10063000809180008F7DF9CF80918000877FF5CFFA
:1006400084B58F7784BD089584B58F7DFBCF80916D
:1006500090008F77809390000895809190008F7D17
:10066000F9CF80919000877FF5CF8091C0008F7780
:100670008093C00008958091C0008F7DF9CF809154
:10068000C200877F8093C2000895CF93DF93282F05
:1006900030E0F901EC5EFE4F8491F901EB50FF4F21
:1006A000D491F901EA52FF4FC491CC23A1F08111FA
:1006B0000E94F902EC2FF0E0EE0FFF1FE853FF4F0E
:1006C000A591B491EC91ED2381E090E009F480E0F4
:1006D000DF91CF91089580E090E0FACF1F93CF9300
:1006E000DF93282F30E0F901EC5EFE4F8491F90191
:1006F000EB50FF4FD491F901EA52FF4FC491CC2344
:10070000A9F0162F81110E94F902EC2FF0E0EE0FF4
:10071000FF1FE654FF4FA591B4918FB7F894EC9169
:10072000111108C0D095DE23DC938FBFDF91CF91EC
:100730001F910895DE2BF8CFCF93DF9390E0FC015B
:10074000EB50FF4F24918A529F4FFC0184918823E4
:10075000C9F090E0880F991FFC01E455FF4FA59167
:10076000B491FC01E654FF4FC591D49161110DC0C5
:100770009FB7F8948C91209582238C9388812823AD
:1007800028839FBFDF91CF910895623051F49FB7C6
:10079000F8943C91822F809583238C93E8812E2BB3
:1007A000EFCF8FB7F894EC912E2B2C938FBFEACF1D
:1007B0001F93CF93DF93182FEB0161E00E949C03FE
:1007C000209739F460E0812FDF91CF911F910C9435
:1007D0006E03CF3FD10511F461E0F5CFE12FF0E0DA
:1007E000EC5EFE4FE491E150EF3008F07FC0F0E0A6
:1007F000E450FC4F0C94F50F0B041304180422046E
:100800002C04760476047604360440044A04540426
:1008100061047604690484B5806884BDC7BDDF9136
:10082000CF911F91089584B5806284BDC8BDF7CF74
:1008300080918000806880938000D0938900C0936D
:100840008800EDCF80918000806280938000D093FB
:100850008B00C0938A00E3CF8091800088608093F2
:100860008000D0938D00C0938C00D9CF80919000F0
:10087000806880939000D0939900C0939800CFCF68
:1008800080919000806280939000D0939B00C093F1
:100890009A00C5CF80919000886080939000D0939B
:1008A0009D00C0939C00BBCF8091C0008068809366
:1008B000C0008091C0008F7B8093C000C093CF00A8
:1008C000AECF8091C00080628093C000C093D00002
:1008D000A6CF8091C20088608093C2008091C20040
:1008E0008B7F8093C200C093D20099CFC038D105CE
:1008F0000CF072CF67CF3FB7F8948091A801909128
:10090000A901A091AA01B091AB0126B5A89B05C091
:100910002F3F19F00196A11DB11D3FBFBA2FA92F7E
:10092000982F8827BC01CD01620F711D811D911D7B
:1009300042E0660F771F881F991F4A95D1F70895E7
:100940008F929F92AF92BF92CF92DF92EF92FF92DF
:100950004B015C010E947B046B017C010E947B04C3
:100960006C197D098E099F09683E734081059105C8
:10097000A8F321E0821A9108A108B10888EEC80EF8
:1009800083E0D81EE11CF11C81149104A104B10480
:1009900029F7FF90EF90DF90CF90BF90AF909F909E
:1009A0008F9008958F929F92AF92BF92CF92DF92D5
:1009B000EF92FF920F931F93CF93DF936C017B0114
:1009C0008A0180910B01882309F45CC08091C101E8
:1009D000882309F457C08091B20180FF05C080913F
:1009E000E00082608093E000E801B12C8AEFA82E3D
:1009F00093E0892E2AE3922E209711F4BB20D9F19F
:100A00000E948E0181110AC0AA94AA20D9F161E046
:100A100070E080E090E00E94A004EECF8C171D06ED
:100A200011F00CF08C2F9FB7F8948092E900209180
:100A3000E80025FD02C09FBFDFCF282F30E0C21B9A
:100A4000D30BF701815020F041914093F100FACF90
:100A5000E20EF31EBB2021F09092E800B12CEBCF08
:100A60008091E80085FDE7CF9092E800BB24B39425
:100A7000209709F3F3CF5D9884E68093B1011016B7
:100A800011063CF081E090E0F6019383828310E050
:100A900000E0C801DF91CF911F910F91FF90EF907F
:100AA000DF90CF90BF90AF909F908F900895FC0102
:100AB00001900020E9F73197AF01481B590BBC01A9
:100AC00082EC91E00C94D2048F929F92AF92BF92ED
:100AD0000F931F93CF93DF93CDB7DEB7A1970FB6D8
:100AE000F894DEBF0FBECDBF19A2423008F44AE031
:100AF0008E010F5D1F4F842E912CB12CA12CA501CE
:100B000094010E94750DE62FB901CA01EA30F4F490
:100B1000E05DD801EE938D01232B242B252B79F753
:100B200090E080E0109719F0CD010E945705A19642
:100B30000FB6F894DEBF0FBECDBFDF91CF911F91EE
:100B40000F91BF90AF909F908F900895E95CE1CF97
:100B5000CF93DF930E945705EC0185E291E00E945C
:100B600057058C0F9D1FDF91CF91089588E291E08A
:100B70000E94A80561E089E00E946E0360E088E0C1
:100B80000E946E0360E087E00E946E0361E086E0F1
:100B90000E946E0368EE73E080E090E00E94A00483
:100BA0006EE670E08BE00E94D8036FEA70E085E0AB
:100BB0000C94D80389E391E00E94A80560E089E0E5
:100BC0000E946E0361E088E00E946E0361E087E0AE
:100BD0000E946E0360E086E00E946E0368EE73E0A0
:100BE00080E090E00E94A0046EE670E08BE00E943E
:100BF000D8036FEA70E085E00C94D80389E491E0B3
:100C00000E94A80560E089E00E946E0360E088E031
:100C10000E946E0360E087E00E946E0360E086E061
:100C20000E946E0362E370E080E090E00C94A00408
:100C30004F925F926F927F928F929F92AF92BF92EC
:100C4000CF92DF92EF92FF920F931F9360E082E1C9
:100C50000E946E0383E090E00197F1F761E082E18A
:100C60000E946E0383E290E00197F1F760E082E179
:100C70000E946E03E8E0F1E06491E9EEF0E0E491B7
:100C8000F0E0EE0FFF1FE853FF4F8591949100E4D1
:100C900012E42FE030E0462F0E94460B61157105EB
:100CA0008105910529F06F5F7F4F8F4F9F4F9F7098
:100CB0000E94C00E23E333E34BE652E40E94180E79
:100CC0006B017C0187E591E00E945705A701960121
:100CD000C701B6010E94E40F8823E1F089E691E0A4
:100CE0000E94570585E291E00E945705C701B601B1
:100CF0000E948A0ECB011F910F91FF90EF90DF9021
:100D0000CF90BF90AF909F908F907F906F905F90AB
:100D10004F9008952FEF3FEF4FE75FE7C701B60110
:100D20000E94E40F81110DC02FEF3FEF4FE75FE707
:100D3000C701B6010E94130E18161CF48DE691E04F
:100D4000CFCF2FEF3FEF4FE75FE4C701B6010E941F
:100D5000720F18161CF481E791E0C2CF2FEF3FEF1E
:100D60004FE75FECC701B6010E94130E87FDF3CF7A
:100D70002AE037ED43EA5BE3C701B6010E94A70D05
:100D80002B013C010E94910E4B015C010E94C00EA0
:100D90009B01AC01C301B2010E94A60D2B013C01D5
:100DA0004AE0C501B4010E9464056EE282EC91E064
:100DB0000E94780220E030E040E251E4C301B20139
:100DC0000E94770F2B013C010E94910E4B01B12C28
:100DD000A12C4AE0C501B4010E946405C501B4011B
:100DE0000E94C00E9B01AC01C301B2010E94A60D7E
:100DF00020E030E040E251E40E94770F0E94910E23
:100E000090E080E04AE00E9464056CCFCF93DF93CE
:100E10000E94FE0585E791E00E94A80560E089E058
:100E20000E946E0361E088E00E946E0360E087E04C
:100E30000E946E0361E086E00E946E0360E273E050
:100E400080E090E00E94A0046EE670E08BE00E94DB
:100E5000D8036FEA70E085E00E94D8030E94FE0587
:100E600084EB90E00E94FF006CE271E080E090E093
:100E70000E94A0040E9418069093A1018093A001F3
:100E80006CE271E080E090E00E94A00490E080E0DD
:100E90000E94FF006CE271E080E090E00E94A004FC
:100EA0000E941806EC0190939F0180939E016CE2D2
:100EB00071E080E090E00E94A0048AE590E00E944A
:100EC000FF006CE271E080E090E00E94A00480915D
:100ED000A0019091A1018C179D0724F4DF91CF917F
:100EE0000C94DA05C817D90724F4DF91CF910C943C
:100EF000B60581E891E00E94A80561E089E00E94C2
:100F00006E0360E088E00E946E0361E087E00E946B
:100F10006E0360E086E00E946E0368EB7BE080E099
:100F200090E00E94A0046EE670E08BE00E94D8037F
:100F30006FEA70E085E0DF91CF910C94D8031F92A7
:100F40000F920FB60F9211248F939F938091E1001F
:100F50009091E100937F9093E10083FF0FC0109286
:100F6000E90091E09093EB001092EC0092E39093F3
:100F7000ED001092C10198E09093F00082FF22C032
:100F800093E09093E9009091F200992319F09AE38D
:100F90009093E8009091B101992341F09091B101B3
:100FA00091509093B101911101C05D9A9091C0014F
:100FB000992341F09091C00191509093C0019111FB
:100FC00001C0289A84FF18C08091E2008E7E816063
:100FD0008093E2008091E1008F7E8093E100809118
:100FE000B2018E7E80618093B2019F918F910F90AC
:100FF0000FBE0F901F90189580FFF7CF8091E200F1
:101000008E7E80618093E2008091E1008E7E8093ED
:10101000E1008091B2018E7E8160E5CF1F920F9238
:101020000FB60F921124CF92DF92EF92FF920F939F
:101030001F932F933F934F935F936F937F938F9360
:101040009F93AF93BF93EF93FF93CF93DF93CDB76E
:10105000DEB76C97DEBFCDBF1092E9008091E8004B
:1010600083FF25C068E0CE0145960E946B0282EFA7
:101070008093E8008D8987FF39C09091E80090FF48
:10108000FCCF982F907609F034C19E894F89588DF6
:101090002F89F88C911131C0803861F58091B301AE
:1010A0008093F1001092F1008EEF8093E8006C962F
:1010B0000FB6F894DEBF0FBECDBFDF91CF91FF9189
:1010C000EF91BF91AF919F918F917F916F915F91C0
:1010D0004F913F912F911F910F91FF90EF90DF90D3
:1010E000CF900F900FBE0F901F9018959EEF90938A
:1010F000E800C7CF1092F100D5CF913059F481119B
:10110000D3CF4130510581F68091B3018D7F80931B
:10111000B301CACF933049F48111C6CF4130510594
:1011200019F68091B3018260F2CF953041F480913D
:10113000E80080FFFCCF20682093E300B5CF963015
:1011400009F0A9C00B8D1C8D22E01092E9001092CD
:10115000AF011092AE01F2122EC01092AD011092AA
:10116000AC010E943A021F8299E09983FA8291E0D1
:101170009E8390EA98879AEF99872091AE013091EB
:10118000AF01275F3F4F3C832B838D831092E90093
:101190001092AF011092AE011093AD010093AC011B
:1011A00049E050E0BE016F5F7F4F80E00E94140273
:1011B0000E943A0279CF1093AD010093AC010E94D6
:1011C0009F01DC0112960D911C910115110509F486
:1011D00051C1D801ED91FC910480F581E02DBE0153
:1011E0006B5E7F4FC8010995009709F03EC1F80179
:1011F00000851185EACFF3E0FF120EC08F898823A6
:1012000009F440C0823061F440E860E187E991E090
:101210000E94E101811148CF81E28093EB0047CF2A
:10122000813029F440E86BE08BE891E0F1CF833026
:1012300099F70E949F01DC011296ED90FC908E01BF
:101240000F5F1F4F6801E114F10479F0D701ED91B0
:10125000FC910680F781E02DB801C7010995080FC0
:10126000111DF701E084F184EECFD8011C92F60144
:1012700001900020E9F73197BF016C197D0940E02A
:10128000C601C6CF65E771E0FB01449150E080E8FC
:101290000E94140209CF973009F4BECF983021F490
:1012A00081E08093F10000CF993009F0FDCE83708A
:1012B00009F0B2CFEDE0F1E081E031E096E3219179
:1012C000222371F08093E9003093EB00DF01119746
:1012D0002C912093EC009093ED008F5F873079F78D
:1012E0008EE78093EA001092EA008F898093C10113
:1012F000DBCE8B8D9C8D1092E9001092AF01109285
:10130000AE019093AD018093AC01898D811192C0A3
:101310008E899D89913A49F4813209F07DCF47E069
:1013200050E064E071E080E0B3CF913209F074CF17
:10133000833269F48F89988DB0E0A0E0809300013A
:1013400090930101A0930201B0930301ADCE8032CE
:1013500069F48091E80082FFFCCF67E084E091E0CF
:101360000E946B028BEF8093E8009ECE823209F0E0
:101370009BCE8F8980930B01EEEFFFE785919491CF
:101380008B3F9C4D51F1E0E0F8E080910401909199
:101390000501A0910601B0910701803B9440A10591
:1013A000B105F1F480910B0180FD1AC0EE3F8AE097
:1013B000F80789F587E797E791838083809160003C
:1013C0008093B00188E19BE00FB6F894A8958093D4
:1013D00060000FBE9093600067CEEEEFFAE0D5CFCD
:1013E000808191818737974709F05ECEA8958091DB
:1013F00060008861809360008091B00180936000FC
:10140000EE3F2AE0F20789F08091FE0A9091FF0AF0
:101410009183808349CE808191818737980751F2EB
:101420009093FF0A8093FE0AC5CF1092FF0A109294
:10143000FE0A3ACE0E949F01DC0112960D911C918A
:101440000115110509F4E8CED801ED91FC91019048
:10145000F081E02DBE016B5E7F4FC80109958111BF
:1014600023CEF80100851185EBCF181619060CF470
:101470001BCED2CEF1E0FF12BECE69E771E004CF01
:101480001F920F920FB60F9211242F933F938F93B9
:101490009F93AF93BF938091A4019091A501A091D8
:1014A000A601B091A7013091A30123E0230F2D37AE
:1014B00058F50196A11DB11D2093A3018093A401AD
:1014C0009093A501A093A601B093A7018091A801D4
:1014D0009091A901A091AA01B091AB010196A11D23
:1014E000B11D8093A8019093A901A093AA01B09384
:1014F000AB01BF91AF919F918F913F912F910F9031
:101500000FBE0F901F90189526E8230F0296A11D7D
:10151000B11DD2CF1F920F920FB60F9211242F93AD
:101520003F934F935F936F937F938F939F93AF936B
:10153000BF93CF93DF93EF93FF938091A201C0916C
:101540003602D0E087FF24C01092850010928400FC
:101550008091A2018F5F8093A2018091A201082E49
:10156000000C990B8C179D0724F48091A2018C30FC
:10157000C4F18091840090918500049680349C4948
:1015800008F47AC08091840090918500049676C01A
:101590008091A201082E000C990B8C179D07C4F6B0
:1015A000E091A2018E2FEE0F990BFC01EE0FFF1FB1
:1015B000E80FF91FEE5EFD4F808186FFC9CFE091F5
:1015C000A2018E2FEE0F990BFC01EE0FFF1FE80F0B
:1015D000F91FEE5EFD4F808160E08F730E946E0305
:1015E000B7CF2091840030918500E091A2018E2F29
:1015F000EE0F990BFC01EE0FFF1FE80FF91FEE5ED7
:10160000FD4F81819281820F931F90938900809377
:101610008800E091A2018E2FEE0F990BFC01EE0FD6
:10162000FF1FE80FF91FEE5EFD4F808186FF11C09E
:10163000E091A2018E2FEE0F990BFC01EE0FFF1F20
:10164000E80FF91FEE5EFD4F808161E08F730E940D
:101650006E03FF91EF91DF91CF91BF91AF919F9179
:101660008F917F916F915F914F913F912F910F904B
:101670000FBE0F901F90189580E49CE9909389000D
:10168000809388008FEF8093A201E3CFCF92DF9207
:10169000EF92FF920F931F93E82FF92F05C001508F
:1016A00011092109310961F1908196239417B9F349
:1016B00005C0015011092109310911F190819623CA
:1016C0009413F7CFC12CD12CE12CF12C0AC08FEF51
:1016D000C81AD80AE80AF80A0C151D052E053F0598
:1016E00079F080818623841791F36C2D7D2D8E2DCA
:1016F0009F2D1F910F91FF90EF90DF90CF90089555
:1017000060E070E080E090E01F910F91FF90EF901B
:10171000DF90CF9008951092C5011092C40188EE19
:1017200093E0A0E0B0E08093C6019093C701A0933E
:10173000C801B093C90187E191E09093C301809300
:10174000C2018FEF9FEF9093CF018093CE018091E4
:1017500036028C3098F491E0980F90933602809383
:10176000370290E0FC01EE0FFF1FE80FF91FEE5E5D
:10177000FD4F88EB9BE09283818308958FEF8093E8
:1017800037020895789484B5826084BD84B5816001
:1017900084BD85B5826085BD85B5816085BD80913C
:1017A0006E00816080936E001092810080918100B4
:1017B00082608093810080918100816080938100AC
:1017C0008091800081608093800080919100826090
:1017D000809391008091910081608093910080912D
:1017E00090008160809390008091C100846080931C
:1017F000C1008091C10082608093C1008091C100CE
:1018000081608093C1008091C30081608093C30098
:101810008091C00082608093C0008091C20081608E
:101820008093C20080917A00846080937A008091D6
:101830007A00826080937A0080917A008160809340
:101840007A0080917A00806880937A001092C101BA
:101850001092B3011092B2018091D7008160809301
:10186000D70080EA8093D80089B5806189BD89B5A9
:10187000826089BD09B400FEFDCF61E070E080E0C8
:1018800090E00E94A0048091D8008F7C80618093BA
:10189000D8008091E000807F8093E0008091E1009B
:1018A0008E7E8093E1008DE08093E200559A209A2D
:1018B0008FEF9FEF9093CF018093CE0180913702FD
:1018C0008C3008F051C061E08DE00E949C03809153
:1018D0003702282F30E0F901EE0FFF1FE20FF31F50
:1018E000EE5EFD4F9081907C9D6090831092380257
:1018F000109239022CE0622F0E94E90F829FB00102
:10190000112430E020E0AB01420F531FFA01EE0F2B
:10191000FF1FE40FF51FEE5EFD4F908196FD16C090
:101920002F5F3F4F2C30310571F781110FC010929E
:10193000800082E0809381001092850010928400E4
:10194000B19A80916F00826080936F00E0913702BE
:101950008E2F90E0FC01EE0FFF1FE80FF91FEE5EE7
:10196000FD4F80818064808361E08BE00E949C0356
:1019700061E085E00E949C0361E089E00E949C0395
:1019800061E088E00E949C0361E087E00E949C0384
:1019900061E086E00E949C0362E083E00E949C0379
:1019A00062E084E00E949C0362E08CE00E949C0361
:1019B00061E082E10E949C0360E083E10E949C035D
:1019C000C0E0D0E08AE590E00E94FF0068EC70E0A3
:1019D00080E090E00E94A0040E941806BC01990FCC
:1019E000880B990B0E94C20E6B017C0120E030E055
:1019F00040E251E40E94130E87FF1CC00E940607BC
:101A000084E00E944503892B11F40E94DA0583E0EB
:101A10000E944503892B11F40E94B6058CE00E94B8
:101A20004503019711F40E940607209759F20E947E
:101A30000000C8CF20E030E040E252E4C701B60128
:101A40000E94720F87FDDCCF8FE891E00E94A8050D
:101A500061E089E00E946E0360E088E00E946E030E
:101A600061E087E00E946E0360E086E00E946E0302
:101A70006EE670E08BE00E94D8036FEA70E085E0CC
:101A80000E94D803BDCF052E97FB1EF400940E9440
:101A90005A0D57FD07D00E94750D07FC03D04EF478
:101AA0000C945A0D50954095309521953F4F4F4FCE
:101AB0005F4F089590958095709561957F4F8F4FFA
:101AC0009F4F08950E94970DA59F900DB49F900D74
:101AD000A49F800D911D11240895B7FF0C94620DF1
:101AE0000E94620D821B930B0895A1E21A2EAA1B7D
:101AF000BB1BFD010DC0AA1FBB1FEE1FFF1FA217BE
:101B0000B307E407F50720F0A21BB30BE40BF50BBA
:101B1000661F771F881F991F1A9469F76095709543
:101B2000809590959B01AC01BD01CF010895A29FC6
:101B3000B001B39FC001A39F700D811D1124911DA1
:101B4000B29F700D811D1124911D08955058BB271F
:101B5000AA270E94BE0D0C94380F0E942A0F38F05D
:101B60000E94310F20F039F49F3F19F426F40C94B1
:101B7000270F0EF4E095E7FB0C94210FE92F0E944C
:101B8000490F58F3BA17620773078407950720F0C7
:101B900079F4A6F50C946B0F0EF4E0950B2EBA2F8A
:101BA000A02D0B01B90190010C01CA01A001112463
:101BB000FF27591B99F0593F50F4503E68F11A160F
:101BC000F040A22F232F342F4427585FF3CF4695A0
:101BD00037952795A795F0405395C9F77EF41F16C2
:101BE000BA0B620B730B840BBAF09150A1F0FF0F8C
:101BF000BB1F661F771F881FC2F70EC0BA0F621F78
:101C0000731F841F48F4879577956795B795F79567
:101C10009E3F08F0B0CF9395880F08F09927EE0FFC
:101C20009795879508950E94FD0E08F481E0089528
:101C30000E942C0E0C94380F0E94310F58F00E9415
:101C40002A0F40F029F45F3F29F00C94210F511125
:101C50000C946C0F0C94270F0E94490F68F3992382
:101C6000B1F3552391F3951B550BBB27AA27621798
:101C70007307840738F09F5F5F4F220F331F441FA5
:101C8000AA1FA9F335D00E2E3AF0E0E832D09150D9
:101C90005040E695001CCAF72BD0FE2F29D0660FC6
:101CA000771F881FBB1F261737074807AB07B0E809
:101CB00009F0BB0B802DBF01FF2793585F4F3AF00F
:101CC0009E3F510578F00C94210F0C946C0F5F3FF0
:101CD000E4F3983ED4F3869577956795B795F79595
:101CE0009F5FC9F7880F911D9695879597F908957D
:101CF000E1E0660F771F881FBB1F62177307840719
:101D0000BA0720F0621B730B840BBA0BEE1F88F727
:101D1000E09508950E94910E6894B1110C946C0F97
:101D200008950E94510F88F09F5798F0B92F992776
:101D3000B751B0F0E1F0660F771F881F991F1AF0B6
:101D4000BA95C9F714C0B13091F00E946B0FB1E0A1
:101D500008950C946B0F672F782F8827B85F39F0A0
:101D6000B93FCCF3869577956795B395D9F73EF44F
:101D700090958095709561957F4F8F4F9F4F0895F7
:101D8000E89409C097FB3EF4909580957095619515
:101D90007F4F8F4F9F4F9923A9F0F92F96E9BB27CB
:101DA0009395F695879577956795B795F111F8CF47
:101DB000FAF4BB0F11F460FF1BC06F5F7F4F8F4FB2
:101DC0009F4F16C0882311F096E911C0772321F0A8
:101DD0009EE8872F762F05C0662371F096E8862F40
:101DE00070E060E02AF09A95660F771F881FDAF797
:101DF000880F9695879597F90895990F0008550FC4
:101E0000AA0BE0E8FEEF16161706E807F907C0F080
:101E100012161306E407F50798F0621B730B840B88
:101E2000950B39F40A2661F0232B242B252B21F462
:101E300008950A2609F4A140A6958FEF811D811D02
:101E4000089597F99F6780E870E060E008959FEF3C
:101E500080EC089500240A94161617061806090641
:101E6000089500240A941216130614060506089510
:101E7000092E0394000C11F4882352F0BB0F40F498
:101E8000BF2B11F460FF04C06F5F7F4F8F4F9F4FD8
:101E9000089557FD9058440F551F59F05F3F71F05A
:101EA0004795880F97FB991F61F09F3F79F08795C1
:101EB0000895121613061406551FF2CF4695F1DF4A
:101EC00008C0161617061806991FF1CF86957105DA
:101ED000610508940895E894BB2766277727CB010E
:101EE00097F908950E94FD0E08F48FEF08950E945F
:101EF0008A0F0C94380F0E942A0F38F00E94310F7D
:101F000020F0952311F00C94210F0C94270F11242D
:101F10000C946C0F0E94490F70F3959FC1F3950FBD
:101F200050E0551F629FF001729FBB27F00DB11D5D
:101F3000639FAA27F00DB11DAA1F649F6627B00DED
:101F4000A11D661F829F2227B00DA11D621F739FD6
:101F5000B00DA11D621F839FA00D611D221F749FE4
:101F60003327A00D611D231F849F600D211D822F2B
:101F7000762F6A2F11249F5750409AF0F1F0882352
:101F80004AF0EE0FFF1FBB1F661F771F881F91507F
:101F90005040A9F79E3F510580F00C94210F0C94FE
:101FA0006C0F5F3FE4F3983ED4F386957795679581
:101FB000B795F795E7959F5FC1F7FE2B880F911DA9
:101FC0009695879597F908950E94FD0E880B990BB9
:101FD0000895991B79E004C0991F961708F0961B85
:101FE000881F7A95C9F780950895EE0FFF1F059019
:0A1FF000F491E02D0994F894FFCF5E
:101FFA00FFFFFFFF00E100000000000000C1808138
:10200A00000000000000007802D20499028E02DF6C
:10201A00029D02BB020D0A00526F62C3B43A204508
:10202A00737175657264612000526F62C3B43A209D
:10203A00446972656974612000526F62C3B43A20C0
:10204A005061726172200044697374616E636961E0
:10205A0020656D20434D3A20006E616E00696E6600
:10206A00006F766600526F62C3B43A2052C3A92049
:10207A0000526F62C3B43A204769726172200052FB
:0E208A006F62C3B43A204672656E7465200022
:00000001FF
