:100000000C9462000C948A000C948A000C948A0070
:100010000C948A000C948A000C948A000C948A0038
:100020000C948A000C948A000C948A000C945A0652
:100030000C948A000C948A000C948A000C948A0018
:100040000C9410060C948A000C94DE050C94B805F0
:100050000C948A000C948A000C948A000C948A00F8
:100060000C948A000C948A000000000024002700F1
:100070002A0000000000250028002B0000000000DE
:1000800023002600290004040404040404040202DA
:100090000202020203030303030301020408102007
:1000A0004080010204081020010204081020000012
:1000B0000008000201000003040700000000000027
:1000C00000005B0711241FBECFEFD8E0DEBFCDBF1D
:1000D00011E0A0E0B1E0E0ECF7E102C005900D9284
:1000E000AC38B107D9F722E0ACE8B1E001C01D920D
:1000F000AF35B207E1F710E0C2E6D0E004C02197C7
:10010000FE010E94D80BC136D107C9F70E94B8077B
:100110000C94DE0B0C9400008F929F92AF92BF92D2
:10012000FF920F931F93CF93DF93F0905C022BE02D
:100130002F1508F44CC020915E0208E512E0021B66
:10014000110927FD1395000F111F000F111F20919A
:100150005D02C8E8D0E0C21BD10927FDD395CC0FC2
:10016000DD1FCC0FDD1F4E010D2E000CAA08BB08B1
:100170009801012E000C440B550B281939094A0926
:100180005B09DC010E94500924EB30E040E050E0C4
:100190000E942609820E931EA41EB51E8C169D0673
:1001A0002CF0E801801691060CF4E4012297CC0FA4
:1001B000DD1F2FB7F8948F2D90E0FC01EE0FFF1F8D
:1001C000E80FF91FE95CFD4FD283C1832FBFDF9198
:1001D000CF911F910F91FF90BF90AF909F908F9004
:1001E0000895AF92BF92CF92DF92EF92FF920F935A
:1001F0001F93CF93DF936C017B018B01040F151FBD
:10020000EB015E01AE18BF08C017D10759F0699124
:10021000D601ED91FC910190F081E02DC601099588
:10022000892B79F7C501DF91CF911F910F91FF9035
:10023000EF90DF90CF90BF90AF900895FC01538D69
:10024000448D252F30E0842F90E0821B930B5417B0
:1002500010F0CF96089501970895FC01918D828D3D
:10026000981761F0A28DAE0FBF2FB11D5D968C91D6
:10027000928D9F5F9F73928F90E008958FEF9FEF15
:100280000895FC01918D828D981731F0828DE80FD1
:10029000F11D858D90E008958FEF9FEF0895FC018B
:1002A000918D228D892F90E0805C9F4F821B910958
:1002B0008F73992708958AE991E00E944F0121E008
:1002C000892B09F420E0822F089580E090E0892BAB
:1002D00029F00E945B0181110C9400000895FC013B
:1002E000A48DA80FB92FB11DA35ABF4F2C91848D97
:1002F00090E001968F739927848FA689B7892C93F4
:10030000A089B1898C91837080648C93938D848D46
:10031000981306C00288F389E02D80818F7D808349
:100320000895EF92FF920F931F93CF93DF93EC0109
:1003300081E0888F9B8D8C8D98131AC0E889F9898C
:10034000808185FF15C09FB7F894EE89FF8960838F
:10035000E889F98980818370806480839FBF81E010
:1003600090E0DF91CF911F910F91FF90EF90089552
:10037000F62E0B8D10E00F5F1F4F0F731127E02E2D
:100380008C8D8E110CC00FB607FCFACFE889F98965
:10039000808185FFF5CFCE010E946F01F1CFEB8DFB
:1003A000EC0FFD2FF11DE35AFF4FF0829FB7F89439
:1003B0000B8FEA89FB8980818062CFCFCF93DF9357
:1003C000EC01888D8823B9F0AA89BB89E889F9896D
:1003D0008C9185FD03C0808186FD0DC00FB607FCA2
:1003E000F7CF8C9185FFF2CF808185FFEDCFCE01D5
:1003F0000E946F01E9CFDF91CF910895833081F0A2
:1004000028F4813099F08230A9F008958730A9F05E
:100410008830C9F08430B1F4809180008F7D03C0B2
:10042000809180008F7780938000089584B58F77C6
:1004300084BD089584B58F7DFBCF8091B0008F7708
:100440008093B00008958091B0008F7DF9CFCF9355
:10045000DF93282F30E0F901E255FF4F8491F90135
:10046000E656FF4FD491F901EA57FF4FC491CC23D0
:10047000A1F081110E94FE01EC2FF0E0EE0FFF1FB2
:10048000E458FF4FA591B491EC91ED2381E090E009
:1004900009F480E0DF91CF91089580E090E0FACFF9
:1004A0001F93CF93DF93282F30E0F901E255FF4FE0
:1004B0008491F901E656FF4FD491F901EA57FF4FB5
:1004C000C491CC23A9F0162F81110E94FE01EC2FBC
:1004D000F0E0EE0FFF1FEE58FF4FA591B4918FB7DC
:1004E000F894EC91111108C0D095DE23DC938FBFF6
:1004F000DF91CF911F910895DE2BF8CFCF93DF933B
:1005000090E0FC01E656FF4F24918A579F4FFC0173
:1005100084918823C9F090E0880F991FFC01E85965
:10052000FF4FA591B491FC01EE58FF4FC591D491B6
:1005300061110DC09FB7F8948C91209582238C9304
:100540008881282328839FBFDF91CF91089562304F
:1005500051F49FB7F8943C91822F809583238C931C
:10056000E8812E2BEFCF8FB7F894EC912E2B2C93A4
:100570008FBFEACF1F93CF93DF93182FEB0161E07A
:100580000E947E02209739F460E0812FDF91CF91A5
:100590001F910C945002CF3FD10511F461E0F5CFCB
:1005A000E12FF0E0E255FF4FE491E33031F140F408
:1005B000E130B1F0E230E1F0C038D1057CF7E4CFB2
:1005C000E73029F1E83059F1E430B1F7809180004B
:1005D000806280938000D0938B00C0938A0004C017
:1005E00084B5806884BDC7BDDF91CF911F91089508
:1005F00084B5806284BDC8BDF7CF809180008068DB
:1006000080938000D0938900C0938800EDCF8091C3
:10061000B00080688093B000C093B300E5CF8091B4
:10062000B00080628093B000C093B400DDCF3FB7CC
:10063000F8948091960190919701A0919801B091C2
:10064000990126B5A89B05C02F3F19F00196A11D61
:10065000B11D3FBFBA2FA92F982F8827BC01CD010C
:10066000620F711D811D911D42E0660F771F881F6B
:10067000991F4A95D1F708958F929F92AF92BF929A
:10068000CF92DF92EF92FF924B015C010E94170321
:100690006B017C010E9417036C197D098E099F096B
:1006A000683E734081059105A8F321E0821A910804
:1006B000A108B10888EEC80E83E0D81EE11CF11C29
:1006C00081149104A104B10429F7FF90EF90DF9009
:1006D000CF90BF90AF909F908F900895FC010190B4
:1006E0000020E9F73197AF01481B590BBC018AE99B
:1006F00091E00C94F1008F929F92AF92BF920F9372
:100700001F93CF93DF93CDB7DEB7A1970FB6F894C1
:10071000DEBF0FBECDBF19A2423008F44AE08E0101
:100720000F5D1F4F842E912CB12CA12CA50194019B
:100730000E945809E62FB901CA01EA30F4F4E05DDD
:10074000D801EE938D01232B242B252B79F790E0F4
:1007500080E0109719F0CD010E946E03A1960FB6AC
:10076000F894DEBF0FBECDBFDF91CF911F910F91E7
:10077000BF90AF909F908F900895E95CE1CFCF93A9
:10078000DF930E946E03EC0182E191E00E946E0310
:100790008C0F9D1FDF91CF91089585E191E00E941C
:1007A000BF0361E089E00E94500260E088E00E949F
:1007B000500260E087E00E94500261E086E00E9403
:1007C000500264EF71E080E090E00E943C0360EA38
:1007D00070E08BE00E94BA0264E670E085E00C9461
:1007E000BA0286E291E00E94BF0360E089E00E94C5
:1007F000500261E088E00E94500261E087E00E94C0
:10080000500260E086E00E94500264EF71E080E0F8
:1008100090E00E943C0360EA70E08BE00E94BA0224
:1008200064E670E085E00C94BA0286E391E00E94F1
:10083000BF0360E089E00E94500261E088E00E940E
:10084000500260E087E00E94500261E086E00E9472
:10085000500264EF71E080E090E00E943C0360EAA7
:1008600070E08BE00E94BA0264E670E085E00C94D0
:10087000BA0282E491E00E94BF0360E089E00E9436
:10088000500260E088E00E94500260E087E00E9431
:10089000500260E086E00E94500262E370E080E077
:1008A00090E00C943C034F925F926F927F928F92F4
:1008B0009F92AF92BF92CF92DF92EF92FF920F93EF
:1008C0001F9360E08EE00E94500283E090E0019769
:1008D000F1F761E08EE00E94500283E290E0019720
:1008E000F1F760E08EE00E945002E9EAF0E06491E6
:1008F000E5E9F0E0E491F0E0EE0FFF1FE458FF4F70
:100900008591949100E412E42FE030E0462F0E949C
:100910001607611571058105910529F06F5F7F4FFD
:100920008F4F9F4F9F700E94A30A23E333E34BE650
:1009300052E40E94FB096B017C0180E591E00E947A
:100940006E03A7019601C701B6010E94C70B882359
:10095000E1F082E691E00E946E0382E191E00E9464
:100960006E03C701B6010E946D0ACB011F910F9162
:10097000FF90EF90DF90CF90BF90AF909F908F90BF
:100980007F906F905F904F9008952FEF3FEF4FE76C
:100990005FE7C701B6010E94C70B81110DC02FEFA1
:1009A0003FEF4FE75FE7C701B6010E94F60918164F
:1009B0001CF486E691E0CFCF2FEF3FEF4FE75FE4E7
:1009C000C701B6010E94550B18161CF48AE691E087
:1009D000C2CF2FEF3FEF4FE75FECC701B6010E9498
:1009E000F60987FDF3CF2AE037ED43EA5BE3C70161
:1009F000B6010E948A092B013C010E94740A4B0136
:100A00005C010E94A30A9B01AC01C301B2010E94D8
:100A100089092B013C014AE0C501B4010E947B0316
:100A20006EE28AE991E00E94910120E030E040E22C
:100A300051E4C301B2010E945A0B2B013C010E94F8
:100A4000740A4B01B12CA12C4AE0C501B4010E94EB
:100A50007B03C501B4010E94A30A9B01AC01C30141
:100A6000B2010E94890920E030E040E251E40E9496
:100A70005A0B0E94740A90E080E04AE00E947B03D7
:100A80006CCFCF93DF930E9439040E9415040E941B
:100A9000390482E890E00E948C006CE271E080E012
:100AA00090E00E943C030E94530490938F01809336
:100AB0008E016CE271E080E090E00E943C0382E3F2
:100AC00090E00E948C006CE271E080E090E00E9477
:100AD0003C030E945304EC0190938D0180938C01A0
:100AE0006CE271E080E090E00E943C038AE590E0D7
:100AF0000E948C006CE271E080E090E00E943C0378
:100B000080918E0190918F018C179D0724F4DF91C5
:100B1000CF910C94F103C817D90724F4DF91CF913A
:100B20000C94CD038EE691E00E94BF0361E089E062
:100B30000E94500260E088E00E94500261E087E07D
:100B40000E94500260E086E00E94500268EB7BE069
:100B500080E090E00E943C0360EA70E08BE00E943D
:100B6000BA0264E670E085E0DF91CF910C94BA029E
:100B70001F920F920FB60F9211242F933F934F9312
:100B80005F936F937F938F939F93AF93BF93EF93F5
:100B9000FF938AE991E00E946F01FF91EF91BF916D
:100BA000AF919F918F917F916F915F914F913F9105
:100BB0002F910F900FBE0F901F9018951F920F92BC
:100BC0000FB60F9211242F938F939F93EF93FF9360
:100BD000E091AA01F091AB018081E091B001F09128
:100BE000B10182FD1BC090818091B3018F5F8F7333
:100BF0002091B401821741F0E091B301F0E0E65694
:100C0000FE4F958F8093B301FF91EF919F918F914C
:100C10002F910F900FBE0F901F9018958081F4CFE9
:100C20001F920F920FB60F9211242F933F938F9321
:100C30009F93AF93BF938091920190919301A09164
:100C40009401B09195013091910123E0230F2D374C
:100C500058F50196A11DB11D209391018093920139
:100C600090939301A0939401B09395018091960184
:100C700090919701A0919801B09199010196A11DC1
:100C8000B11D8093960190939701A0939801B09322
:100C90009901BF91AF919F918F913F912F910F90AB
:100CA0000FBE0F901F90189526E8230F0296A11DE6
:100CB000B11DD2CF1F920F920FB60F9211242F9316
:100CC0003F934F935F936F937F938F939F93AF93D4
:100CD000BF93CF93DF93EF93FF9380919001C091E7
:100CE0005B02D0E087FF24C0109285001092840040
:100CF000809190018F5F8093900180919001082EE8
:100D0000000C990B8C179D0724F4809190018C3076
:100D1000C4F18091840090918500049680349C49B0
:100D200008F47AC08091840090918500049676C082
:100D300080919001082E000C990B8C179D07C4F62A
:100D4000E09190018E2FEE0F990BFC01EE0FFF1F2B
:100D5000E80FF91FE95CFD4F808186FFC9CFE09164
:100D600090018E2FEE0F990BFC01EE0FFF1FE80F85
:100D7000F91FE95CFD4F808160E08F730E94500293
:100D8000B7CF2091840030918500E09190018E2FA3
:100D9000EE0F990BFC01EE0FFF1FE80FF91FE95C46
:100DA000FD4F81819281820F931F909389008093E0
:100DB0008800E09190018E2FEE0F990BFC01EE0F51
:100DC000FF1FE80FF91FE95CFD4F808186FF11C00E
:100DD000E09190018E2FEE0F990BFC01EE0FFF1F9B
:100DE000E80FF91FE95CFD4F808161E08F730E947D
:100DF0005002FF91EF91DF91CF91BF91AF919F9101
:100E00008F917F916F915F914F913F912F910F90B3
:100E10000FBE0F901F90189580E49CE99093890075
:100E2000809388008FEF80939001E3CFCF92DF9281
:100E3000EF92FF920F931F93E82FF92F05C00150F7
:100E400011092109310961F1908196239417B9F3B1
:100E500005C0015011092109310911F19081962332
:100E60009413F7CFC12CD12CE12CF12C0AC08FEFB9
:100E7000C81AD80AE80AF80A0C151D052E053F0500
:100E800079F080818623841791F36C2D7D2D8E2D32
:100E90009F2D1F910F91FF90EF90DF90CF900895BD
:100EA00060E070E080E090E01F910F91FF90EF9084
:100EB000DF90CF90089510929D0110929C0188EED2
:100EC00093E0A0E0B0E080939E0190939F01A093F7
:100ED000A001B093A10184E091E090939B018093E5
:100EE0009A0185EC90E09093A7018093A60184EC91
:100EF00090E09093A9018093A80180EC90E09093FA
:100F0000AB018093AA0181EC90E09093AD018093B6
:100F1000AC0182EC90E09093AF018093AE0186EC3F
:100F200090E09093B1018093B0011092B3011092C0
:100F3000B4011092B5011092B60180915B028C3021
:100F400098F491E0980F90935B0280935C0290E09C
:100F5000FC01EE0FFF1FE80FF91FE95CFD4F88EB66
:100F60009BE09283818308958FEF80935C020895C4
:100F7000789484B5826084BD84B5816084BD85B574
:100F8000826085BD85B5816085BD80916E00816080
:100F900080936E0010928100809181008260809326
:100FA0008100809181008160809381008091800028
:100FB0008160809380008091B10084608093B10053
:100FC0008091B00081608093B00080917A0084604D
:100FD00080937A0080917A00826080937A00809179
:100FE0007A00816080937A0080917A008068809393
:100FF0007A001092C100E091AA01F091AB0182E069
:101000008083E091A601F091A7011082E091A801F0
:10101000F091A9018FEC80831092B201E091AE01B2
:10102000F091AF0186E08083E091AC01F091AD01D9
:10103000808180618083E091AC01F091AD0180817D
:1010400088608083E091AC01F091AD01808180687F
:101050008083E091AC01F091AD0180818F7D808330
:101060008AE991E00E942D0180915C028C3008F0A9
:1010700051C061E08DE00E947E0280915C02282FC9
:1010800030E0F901EE0FFF1FE20FF31FE95CFD4FA7
:101090009081907C9D60908310925D0210925E0220
:1010A0002CE0622F0E94CC0B829FB001112430E013
:1010B00020E0AB01420F531FFA01EE0FFF1FE40FB8
:1010C000F51FE95CFD4F908196FD16C02F5F3F4FE5
:1010D0002C30310571F781110FC01092800082E031
:1010E000809381001092850010928400B19A8091C3
:1010F0006F00826080936F00E0915C028E2F90E021
:10110000FC01EE0FFF1FE80FF91FE95CFD4F808126
:101110008064808361E08BE00E947E0261E085E074
:101120000E947E0261E089E00E947E0261E088E028
:101130000E947E0261E087E00E947E0261E086E01C
:101140000E947E0262E083E00E947E0262E084E010
:101150000E947E0262E08CE00E947E0261E08EE0EE
:101160000E947E0260E08FE00E947E02C0E0D0E03C
:101170008AE991E00E944F018AE991E00E942D01E5
:101180008AE590E00E948C0068EC70E080E090E0DE
:101190000E943C030E945304BC01990F880B990BD9
:1011A0000E94A50A6B017C0120E030E040E251E49E
:1011B0000E94F60987FF21C00E94410584E00E9439
:1011C0002702892B11F40E94CD0383E00E9427029D
:1011D000892B11F40E94F1038CE00E9427020197F1
:1011E00011F40E944105209719F20E945B018823A7
:1011F00009F4BECF0E940000BBCF20E030E040E207
:1012000052E4C701B6010E94550B87FDD7CF8CE78A
:1012100091E00E94BF0361E089E00E94500260E01B
:1012200088E00E94500261E087E00E94500260E086
:1012300086E00E94500260EA70E08BE00E94BA02F1
:1012400064E670E085E00E94BA02B8CF052E97FBF5
:101250001EF400940E943D0957FD07D00E945809D2
:1012600007FC03D04EF40C943D0950954095309501
:1012700021953F4F4F4F5F4F089590958095709502
:1012800061957F4F8F4F9F4F08950E947A09A59FC8
:10129000900DB49F900DA49F800D911D1124089571
:1012A000B7FF0C9445090E944509821B930B0895D2
:1012B000A1E21A2EAA1BBB1BFD010DC0AA1FBB1F5A
:1012C000EE1FFF1FA217B307E407F50720F0A21BCC
:1012D000B30BE40BF50B661F771F881F991F1A9439
:1012E00069F760957095809590959B01AC01BD0163
:1012F000CF010895A29FB001B39FC001A39F700DBD
:10130000811D1124911DB29F700D811D1124911D0D
:1013100008955058BB27AA270E94A1090C941B0BC3
:101320000E940D0B38F00E94140B20F039F49F3FFF
:1013300019F426F40C940A0B0EF4E095E7FB0C94D8
:10134000040BE92F0E942C0B58F3BA17620773079E
:101350008407950720F079F4A6F50C944E0B0EF453
:10136000E0950B2EBA2FA02D0B01B90190010C01B5
:10137000CA01A0011124FF27591B99F0593F50F4CD
:10138000503E68F11A16F040A22F232F342F442725
:10139000585FF3CF469537952795A795F04053951D
:1013A000C9F77EF41F16BA0B620B730B840BBAF0ED
:1013B0009150A1F0FF0FBB1F661F771F881FC2F758
:1013C0000EC0BA0F621F731F841F48F4879577956C
:1013D0006795B795F7959E3F08F0B0CF9395880F26
:1013E00008F09927EE0F9795879508950E94E00AD7
:1013F00008F481E008950E940F0A0C941B0B0E94D0
:10140000140B58F00E940D0B40F029F45F3F29F0B7
:101410000C94040B51110C944F0B0C940A0B0E946A
:101420002C0B68F39923B1F3552391F3951B550BBE
:10143000BB27AA2762177307840738F09F5F5F4FA7
:10144000220F331F441FAA1FA9F335D00E2E3AF0E6
:10145000E0E832D091505040E695001CCAF72BD0FE
:10146000FE2F29D0660F771F881FBB1F261737074F
:101470004807AB07B0E809F0BB0B802DBF01FF2781
:1014800093585F4F3AF09E3F510578F00C94040B4F
:101490000C944F0B5F3FE4F3983ED4F38695779519
:1014A0006795B795F7959F5FC9F7880F911D96953A
:1014B000879597F90895E1E0660F771F881FBB1F96
:1014C000621773078407BA0720F0621B730B840B43
:1014D000BA0BEE1F88F7E09508950E94740A68948D
:1014E000B1110C944F0B08950E94340B88F09F5754
:1014F00098F0B92F9927B751B0F0E1F0660F771F38
:10150000881F991F1AF0BA95C9F714C0B13091F02D
:101510000E944E0BB1E008950C944E0B672F782F6C
:101520008827B85F39F0B93FCCF3869577956795F2
:10153000B395D9F73EF490958095709561957F4F5E
:101540008F4F9F4F0895E89409C097FB3EF4909504
:101550008095709561957F4F8F4F9F4F9923A9F08C
:10156000F92F96E9BB279395F6958795779567951B
:10157000B795F111F8CFFAF4BB0F11F460FF1BC05F
:101580006F5F7F4F8F4F9F4F16C0882311F096E9F2
:1015900011C0772321F09EE8872F762F05C06623A0
:1015A00071F096E8862F70E060E02AF09A95660F59
:1015B000771F881FDAF7880F9695879597F9089512
:1015C000990F0008550FAA0BE0E8FEEF1616170654
:1015D000E807F907C0F012161306E407F50798F0BC
:1015E000621B730B840B950B39F40A2661F0232BD5
:1015F000242B252B21F408950A2609F4A140A69551
:101600008FEF811D811D089597F99F6780E870E035
:1016100060E008959FEF80EC089500240A94161668
:10162000170618060906089500240A9412161306D0
:10163000140605060895092E0394000C11F488235E
:1016400052F0BB0F40F4BF2B11F460FF04C06F5F7A
:101650007F4F8F4F9F4F089557FD9058440F551F50
:1016600059F05F3F71F04795880F97FB991F61F024
:101670009F3F79F087950895121613061406551F9B
:10168000F2CF4695F1DF08C0161617061806991F07
:10169000F1CF86957105610508940895E894BB27FC
:1016A00066277727CB0197F908950E94E00A08F48E
:1016B0008FEF08950E946D0B0C941B0B0E940D0B75
:1016C00038F00E94140B20F0952311F00C94040BB9
:1016D0000C940A0B11240C944F0B0E942C0B70F3EA
:1016E000959FC1F3950F50E0551F629FF001729FC7
:1016F000BB27F00DB11D639FAA27F00DB11DAA1FD6
:10170000649F6627B00DA11D661F829F2227B00D22
:10171000A11D621F739FB00DA11D621F839FA00DAD
:10172000611D221F749F3327A00D611D231F849FFD
:10173000600D211D822F762F6A2F11249F57504054
:101740009AF0F1F088234AF0EE0FFF1FBB1F661FCF
:10175000771F881F91505040A9F79E3F510580F098
:101760000C94040B0C944F0B5F3FE4F3983ED4F3BE
:10177000869577956795B795F795E7959F5FC1F73C
:10178000FE2B880F911D9695879597F908950E94D5
:10179000E00A880B990B0895991B79E004C0991F02
:1017A000961708F0961B881F7A95C9F780950895BB
:1017B000EE0FFF1F0590F491E02D0994F894FFCFF0
:1017C000000000009101F1001E01DE014F012D011A
:1017D00041010D0A00526F62C3B43A20457371751E
:1017E000657264612000526F62C3B43A204469722A
:1017F000656974612000526F62C3B43A2052C3A974
:101800002000526F62C3B43A2050617261722000AE
:1018100044697374616E63696120656D20434D3A5C
:1018200020006E616E00696E66006F766600526F12
:1018300062C3B43A2047697261722000526F62C37A
:0C184000B43A204672656E74652000000A
:00000001FF
